S00E00005461736B31302E7372656322
S11300000C9434000C943E000C943E000C943E007E
S11300100C943E000C943E000C943E000C943E0064
S11300200C943E000C943E000C943E000C943E0054
S11300300C943E000C943E000C943E000C943E0044
S11300400C943E000C943E000C943E000C943E0034
S11300500C943E000C943E000C943E000C943E0024
S11300600C943E000C943E0011241FBECFEFD8E048
S1130070DEBFCDBF0E9452000C9455000C940000CA
S1130080569A559A84B5806C84BD84B5806384BDCA
S113009081E085BD84B5836084BD88EC87BD84E63A
S11100A088BD08950E944000FFCFF894FFCF62
S9030000FC
