S00D00005461736B372E737265634D
S11300000C9434000C943E000C943E000C943E007E
S11300100C943E000C943E000C943E000C943E0064
S11300200C943E000C943E000C943E000C943E0054
S11300300C943E000C943E000C943E000C943E0044
S11300400C943E000C943E000C943E000C943E0034
S11300500C943E000C943E000C943E000C943E0024
S11300600C943E000C943E0011241FBECFEFD8E048
S1130070DEBFCDBF0E944F000C9452000C940000D0
S1130080599A87EA91E60197F1F700C00000599860
S113009087EA91E60197F1F700C0000008950E94F5
S10B00A04000FDCFF894FFCFEE
S9030000FC
