S00E00005461736B31312E7372656321
S11300000C9434000C943E000C943E000C943E007E
S11300100C943E000C943E000C943E000C943E0064
S11300200C943E000C943E000C943E000C943E0054
S11300300C943E000C943E000C943E000C943E0044
S11300400C943E000C943E000C943E000C943E0034
S11300500C943E000C943E000C943E000C943E0024
S11300600C943E000C943E0011241FBECFEFD8E048
S1130070DEBFCDBF0E945D000C9478000C9400009C
S11300808AB187608AB9EAE7F0E08081806880837A
S1130090ECE7F0E08081806480830895EAE7F0E093
S11300A0808180648083808184FFFDCF809178008B
S11300B02091790090E0922B08950E9440000E94C4
S11300C04E00893522E0920718F0589A59985A98A8
S11300D09C012D5231402B32314018F4599A5A98D0
S11300E058988C32914058F75A9A59985898E7CFB3
S10700F0F894FFCFAE
S9030000FC
