:100000000C9434000C943E000C943E000C943E0082
:100010000C943E000C943E000C943E000C943E0068
:100020000C943E000C943E000C943E000C943E0058
:100030000C943E000C943E000C943E000C943E0048
:100040000C943E000C943E000C943E000C943E0038
:100050000C943E000C943E000C943E000C943E0028
:100060000C943E000C943E0011241FBECFEFD8E04C
:10007000DEBFCDBF0E9455000C9468000C940000B8
:100080008CB580648CBD8CB580618CBD8CB588606E
:100090008CBD84B18C6684B908952E988EBD0DB444
:1000A00007FEFDCF8EB52E9A08950E944000C0E055
:1000B0002FE986E891E0215080409040E1F700C0B0
:1000C00000008C2F0E944D00CF5FCF3789F7EFCF14
:0400D000F894FFCFD2
:00000001FF
